:020000020000FC
:040000000C94C40098
:040028000C945300E1
:040040000C944600D6
:10008C000F930FB70F9300E002BFCA2FDB2F44274B
:10009C0021E00F910FBF0F9118950F930FB70F938E
:1000AC0002EB04BD07E00BBBD89B0C947400D99BEE
:1000BC000C947000DA9B0C946C00DB9B0C94680025
:1000CC000C948700E0E0F4E00C947600E0E0F3E0C0
:1000DC000C947600E0E0F2E00C947600E0E0F1E0C5
:1000EC00AE2FBF2FCE2FDF2FFF963196FF96319676
:1000FC00FF963196FF96319600E002BF442721E02F
:10010C0031E03030B9F1FD130C949100EC130C94E8
:10011C0091000C94C0000FEF03B9022F009503B9A6
:10012C0000E005BB02BBDC980991502F05BB09917F
:10013C00602F02BB583841F0503011F00C94AF00D6
:10014C006C3031F00C94AF006B3F11F00C94AF009D
:10015C00DC9A26110C94B4000C94B700220F0C946A
:10016C00C00021E0439547110C94BF0044270C9428
:10017C00C00060970F910FBF0F91189500E10EBF53
:10018C000FEF0DBF00EF0ABB0FE00BBB0FEF04BB73
:10019C0001BB02B903B9002705BB02BBA0E0B1E06B
:1001AC000E942A01A0E0B2E00E942A01A0E0B3E084
:1001BC000E942A01A0E0B4E00E942A01A0E0B1E074
:1001CC00EAE6F2E00E941801A0E0B2E0EAE6F3E011
:1001DC000E941801A0E0B3E0EAE6F4E00E941801E6
:1001EC00A0E0B4E0EAE6F5E00E94180130E021E07E
:1001FC00442701E0502E00E8602E08E0702E00B776
:10020C00086000BF00E002BF07E003BF02EB04BDC3
:10021C0003E005BD06B70160006406BF01E407BF3B
:10022C007894FFCFFF93EF93BF93AF930FEFC895E5
:10023C000D9231960A95D9F7C8950D923196AF91DA
:10024C00BF91EF91FF910895BF93AF930FEF1FEF05
:10025C001D930A95E9F71D93AF91BF910895000086
:10026C000000000000000000000000000000BB883F
:10027C000000000000000000000000000000FF0073
:10028C00BB88000000000000000000000000BB88DC
:10029C00FF00BB8800000000000000000000000010
:1002AC00BB88FF00BB8800000000000000000000BD
:1002BC000000BB88FF00BB880000000000000000AD
:1002CC0000000000BB88FF00BB880000000000009D
:1002DC00000000000000BB88FF00BB88000000008D
:1002EC000000000000000000BB88FF00BB8800007D
:1002FC0000000000000000000000BB88FF000000B0
:10030C00000000000000000000000000BB8800009E
:10031C0000000000000000000000000000000000D1
:10032C0000000000000000000000000000000000C1
:10033C0000000000000000000000000000000000B1
:10034C0000000000000000000000000000000000A1
:10035C000000000000000000000000000000000091
:10036C000000000000000000000000000000404001
:10037C00000000000000000000000000000060C051
:10038C00404000000000000000000000000060C0C1
:10039C0060C04040000000000000000000004088E9
:1003AC0060C060C040400000000000000000780009
:1003BC00408860C060C04040000000000000FB08A6
:1003CC007800408860C060C0404000000000000021
:1003DC00FB087800408860C060C04040000000000E
:1003EC000000FB087800408860C060C040400000FE
:1003FC0000000000FB087800408860C060C000006E
:10040C00000000000000FB087800408860C000007D
:10041C000000000000000000FB087800408800008D
:10042C0000000000000000000000FB087800000045
:10043C00000000000000000000000000FB080000AD
:10044C0000000000000000000000000000000000A0
:10045C000000000000000000000000000000000090
:10046C000000000000000000000000000000C0A21E
:10047C0000000000000000000000000000007800F8
:10048C00C0A2000000000000000000000000C081BD
:10049C007800C0A20000000000000000000018104E
:1004AC00C0817800C0A2000000000000000070882D
:1004BC001810C0817800C0A2000000000000780075
:1004CC0070881810C0817800C0A200000000C09491
:1004DC00780070881810C0817800C0A2000000005D
:1004EC00C094780070881810C0817800C0A20000F9
:1004FC000000C094780070881810C081780000004B
:10050C0000000000C094780070881810C0810000B2
:10051C00000000000000C0947800708818100000E3
:10052C000000000000000000C094780070880000FB
:10053C0000000000000000000000C09478000000E3
:10054C00000000000000000000000000C09400004B
:10055C000000000000000000000000000000778890
:10056C000000000000000000000000000000FF0080
:10057C007788000000000000000000000000FF0071
:10058C00FF00778800000000000000000000778862
:10059C00FF00FF00778800000000000000000C0046
:1005AC007788FF00FF007788000000000000FF0044
:1005BC000C007788FF00FF00778800000000FB88A4
:1005CC00FF000C007788FF00FF0077880000FF0019
:1005DC00FB88FF000C007788FF00FF007788000085
:1005EC00FF00FB88FF000C007788FF00FF00000075
:1005FC000000FF00FB88FF000C007788FF00000064
:10060C0000000000FF00FB88FF000C007788000052
:10061C00000000000000FF00FB88FF000C00000041
:10062C000000000000000000FF00FB88FF0000003D
:10063C0000000000000000000000FF00FB8800002C
:10064C00000000000000000000000000FF0000009F
:0E065C00000000000000000000000000000090
:00000001FF
