:020000020000FC
:040000000C94F0006C
:040028000C945300E1
:080040000C9446000C94B7007B
:10008C000F930FB70F9300E002BFCA2FDB2F44274B
:10009C0021E00F910FBF0F9118950F930FB70F938E
:1000AC0009ED04BD313069F1D89B0C947400C99BE7
:1000BC000C947000CA9B0C946C00CB9B0C94680045
:1000CC000C948700E0E0F4E00C947600E0E0F3E0C0
:1000DC000C947600E0E0F2E00C947600E0E0F1E0C5
:1000EC00AE2FBF2FCE2FDF2FFF963196FF96319676
:1000FC00FF963196FF96319600E002BF442721E02F
:10010C0031E0303051F1FD130C949100EC130C9450
:10011C0091000C94B30087110C949F000FEF0FB952
:10012C0000000000000073950DB100680DB90C942F
:10013C00B300022F00950FB900000000000073956A
:10014C000DB100680DB925110C94AE000C94B100E2
:10015C00220F0C94B30021E091E00F910FBF0F918F
:10016C0018950F930FB70F93713021F0723011F077
:10017C00733099F087110C94CB0000E00FB900009C
:10018C000000000073950C94EC0009910FB900006D
:10019C000000000073950C94EC00C69AC6980DB143
:1001AC000F770DB9772787110C94DE000C94EB00B8
:1001BC00913011F00C94EB009927439546110C9457
:1001CC00EA0044270C94EB00609780950F910FBFC9
:1001DC000F91189500E10EBF0FEF0DBF00E00ABBA9
:1001EC000FEF0BBB03E001BB00E002BB07EC07BB4E
:1001FC000FEF08BBC698C798C79AA0E0B1E00E9461
:10020C005E01A0E0B2E00E945E01A0E0B3E00E94BB
:10021C005E01A0E0B4E00E945E01A0E0B1E0E2ED7E
:10022C00F2E00E944C01A0E0B2E0E2EDF3E00E94AB
:10023C004C01A0E0B3E0E2EDF4E00E944C01A0E040
:10024C00B4E0E2EDF5E00E944C0130E021E04427FF
:10025C0000E8502E08E0602E0FEF702E70E08FEF4C
:10026C0090E00DE50DB900B7086000BF00E002BFDB
:10027C0007E003BF09ED04BD03E005BD06B701604F
:10028C00006406BF01E407BF7894FFCFFF93EF93A0
:10029C00BF93AF930FEFC8950D9231960A95D9F78E
:1002AC00C8950D923196AF91BF91EF91FF91089542
:1002BC00BF93AF930FEF1FEF1D930A95E9F71D93B3
:1002CC00AF91BF91089500000000000000000000F5
:1002DC00000000000000BB880000000000000000CF
:1002EC00000000000000FF00BB88000000000000C0
:1002FC00000000000000BB88FF00BB88000000006D
:10030C000000000000000000BB88FF00BB8800005C
:10031C0000000000000000000000BB88FF00BB884C
:10032C00000000000000000000000000BB88FF007F
:10033C00BB88000000000000000000000000BB882B
:10034C00FF00BB880000000000000000000000005F
:10035C00BB88FF00BB88000000000000000000000C
:10036C000000BB88FF00000000000000000000003F
:10037C0000000000BB88000000000000000000002E
:10038C000000000000000000000000000000000061
:10039C000000000000000000000000000000000051
:1003AC000000000000000000000000000000000041
:1003BC000000000000000000000000000000000031
:1003CC000000000000000000000000000000000021
:1003DC000000000000004040000000000000000091
:1003EC0000000000000060C0404000000000000061
:1003FC0000000000000060C060C040400000000031
:10040C00000000000000408860C060C04040000058
:10041C000000000000007800408860C060C04040D0
:10042C00000000000000FB087800408860C060C03D
:10043C004040000000000000FB087800408860C0CD
:10044C0060C04040000000000000FB0878004088BD
:10045C0060C060C04040000000000000FB08780055
:10046C00408860C060C00000000000000000FB0875
:10047C007800408860C00000000000000000000010
:10048C00FB0878004088000000000000000000001D
:10049C000000FB08780000000000000000000000D5
:1004AC0000000000FB08000000000000000000003D
:1004BC000000000000000000000000000000000030
:1004CC000000000000000000000000000000000020
:1004DC00000000000000C0A20000000000000000AE
:1004EC000000000000007800C0A200000000000026
:1004FC00000000000000C0817800C0A200000000D5
:10050C000000000000001810C0817800C0A200009C
:10051C0000000000000070881810C0817800C0A294
:10052C00000000000000780070881810C08178006E
:10053C00C0A200000000C094780070881810C08120
:10054C007800C0A200000000C094780070881810D9
:10055C00C0817800C0A200000000C09478007088B0
:10056C001810C0817800000000000000C0947800D2
:10057C0070881810C0810000000000000000C094BA
:10058C0078007088181000000000000000000000C7
:10059C00C09478007088000000000000000000008B
:1005AC000000C09478000000000000000000000073
:1005BC0000000000C09400000000000000000000DB
:1005CC000000000000007788000000000000000020
:1005DC00000000000000FF00778800000000000011
:1005EC00000000000000FF00FF0077880000000002
:1005FC000000000000007788FF00FF0077880000F3
:10060C000000000000000C007788FF00FF007788D6
:10061C00000000000000FF000C007788FF00FF00C6
:10062C00778800000000FB88FF000C007788FF0033
:10063C00FF0077880000FF00FB88FF000C00778824
:10064C00FF00FF0077880000FF00FB88FF000C0014
:10065C007788FF00FF0000000000FF00FB88FF0010
:10066C000C007788FF00000000000000FF00FB88F2
:10067C00FF000C0077880000000000000000FF0065
:10068C00FB88FF000C0000000000000000000000D0
:10069C00FF00FB88FF0000000000000000000000CD
:1006AC000000FF00FB8800000000000000000000BC
:1006BC0000000000FF00000000000000000000002F
:0606CC0000000000000028
:00000001FF
